:020000040800F2
:1000000008430020E1010008432900088F2600086A
:1000100041290008C70200083F4B0008000000000B
:10002000000000000000000000000000490100087E
:10003000DF050008000000008D010008FD2C00080D
:10004000FB010008FB010008FB010008FB010008A0
:10005000FB010008FB010008FB010008FB01000890
:10006000FB010008FB010008FB010008FB01000880
:10007000D1040008DD0400081D050008290500085A
:1000800069050008A9050008FB010008BD4A000831
:10009000C94A0008FB010008FB010008FB01000839
:1000A000FB010008FB010008FB010008FB01000840
:1000B000FB010008FB010008FB010008FB01000830
:1000C000FB010008FB010008FB010008FB01000820
:1000D000FB010008B5300008113100086D3100083F
:1000E000FB010008FB010008FB010008FB01000800
:1000F000FB010008FB010008FB010008FB010008F0
:10010000FB010008FB010008FB010008FB010008DF
:10011000FB010008FB010008FB010008FB010008CF
:10012000FB010008FB010008FB010008FB010008BF
:10013000DFF810D000F08AF800480047AB4B000809
:10014000AFF3008008430020224B19680868B0E82C
:10015000F00F80F30988BFF36F8F4FF0000080F33A
:1001600011884EF00D0E7047000000000648006830
:10017000006880F3088862B661B6BFF34F8FBFF3A3
:100180006F8F00DF00BF00BF08ED00E0EFF30980D4
:10019000BFF36F8F0F4B1A6820E9F00F106008B59E
:1001A0004FF0500080F31188BFF34F8FBFF36F8F74
:1001B00005F094F84FF0000080F31188BDE8084086
:1001C00019680868B0E8F00F80F30988BFF36F8FF3
:1001D000704700BF48030020EFF305807047000020
:1001E0000648804706480047FEE7FEE7FEE7FEE7D1
:1001F000FEE7FEE7FEE7FEE7FEE7FEE78D2D0008DF
:100200003101000840EA01039B0703D009E008C957
:10021000121F08C0042AFAD203E011F8013B00F8CB
:10022000013B521EF9D27047D2B201E000F8012B17
:10023000491EFBD270470022F6E710B513460A4666
:1002400004461946FFF7F0FF204610BD064C074D47
:1002500006E0E06840F0010394E807009847103496
:10026000AC42F6D3FFF768FFE856000808570008CD
:1002700070B58C1810F8015B15F0070301D110F868
:10028000013B2A1106D110F8012B03E010F8016B95
:1002900001F8016B5B1EF9D12B0705D40023521E18
:1002A0000DD401F8013BFAE710F8013BCB1A921C80
:1002B00003E013F8015B01F8015B521EF9D5A1427E
:1002C000D8D3002070BDFEE710B523B1022B04D0B7
:1002D000042B04D038E0002202E0012200E00222D8
:1002E000042831DD194B202802D021282CD114E01C
:1002F0008C78088864F31F40CC7840EA046043F8A7
:10030000320003EBC2000C7904714B794371897997
:100310008171114600F094F816E013F8320008706D
:1003200033F83200000A487053F83200000C88702D
:1003300053F83200000EC87003EBC20002790A7154
:1003400042794A7180798871002010BD58000020E0
:100350000020704710B500220449054803F090F8CA
:100360000449034803F086F8002010BD201D00203A
:1003700074140020381900202DE9F0410C4607467E
:10038000014615461A4E1B4803F074F81A48012D11
:1003900004D0032D10D0052D16D025E021888AB277
:1003A000A0F80424154839460546FFF72BFF20889E
:1003B000294682B2304615E02188114D8AB2A0F854
:1003C0000A2839460F4806E021880F4D8AB2A0F866
:1003D000102C0E4839460646FFF714FF2088314698
:1003E00082B2284602F0FAF80020BDE8F081000051
:1003F0001012002074140020A8030020A80500207B
:1004000054120020AE09002098120020B40D0020E4
:1004100010B51446094AD2F8B822D2F814220AB10B
:10042000012010BD0A460146044803F029F8214680
:10043000BDE81040014803F087B8000074140020A4
:1004400070B5054679B1012910D0204C204601F045
:10045000C0FD08B100F0C4F82979002009B10229D3
:1004600007D0E06008E0194C883CEFE7174C443CAB
:10047000ECE74FF40051E160697919B1012903D02B
:10048000022904D0206105E04FF4C06101E04FF47F
:1004900080612161A979072915D0082913D1216923
:1004A00089B14FF48051A160296861600C21C4E9D1
:1004B0000510E061204601F0ADFE002805D0BDE842
:1004C000704000F08DB8A060EEE770BD981200207B
:1004D000014800F083B90000301400200C4810B52A
:1004E00090F80C1C21F0010180F80C1CB0F80E1CD7
:1004F00000F60C200446FFF79EFE4FF400722146E2
:10050000044802F053F8BDE81040034800F066B913
:10051000A803002098120020EC130020014800F0EE
:100520005DB90000201300200C4810B590F80014AD
:1005300021F0010180F80014B0F8021400F50070F9
:100540000446FFF778FE4FF400722146044802F09B
:100550002DF8BDE81040034800F040B9A803002082
:1005600010120020DC1200200C4810B590F806187C
:1005700021F0010180F80618B0F8081800F20660B2
:100580000446FFF758FE4FF400722146044802F07B
:100590000DF8BDE81040034800F020B9A803002082
:1005A0005412002064130020014800F017B9000025
:1005B000A813002030B590F840500124AC40C56B22
:1005C0006C60046863604368102B036803D0996013
:1005D0000068C26030BD9A600068C16030BD70477D
:1005E00072B6FEE710B590F821100022022905D05E
:1005F0000421816380F82020012010BD01680B6870
:1006000023F00E030B6001680B6823F001030B60FD
:1006100090F84030C46B012101FA03F3636080F865
:10062000211080F82020104610BD00002DE9F05F59
:1006300090F821100024022903D0042181630124B1
:1006400085E001680A6822F00E020A6001680A6803
:1006500022F001020A603F4E3E4FB215DFF8F4C0AF
:10066000DFF8F090DFF8ECA0DFF8E8B0DFF8E4E0C6
:100670000168783F13011502ACF1640CA9F150092F
:10068000AAF13C0AABF1280BAEF1140E4FF480181E
:10069000B14227D9B9420ED0614512D049451DD08B
:1006A000514518D0594518D0714501D1424615E041
:1006B000294EB14201D1012210E0274E1436B14239
:1006C00001D110220AE0244E2836B14206D0224A37
:1006D0003C32914201D11A4600E02A461E49091FC8
:1006E0000A602BE0B94213D0614517D0494522D0AA
:1006F00051451DD059451DD0714501D142461AE0E2
:10070000B14202D14FF0807215E0134EB14201D1D7
:10071000012210E0104E1436B14201D110220AE03D
:100720000D4E2836B14206D00B4A3C32914201D1DF
:100730001A4600E02A46074980394A60012180F8BC
:100740002110002180F82010416B01B1884720461C
:10075000BDE8F09F800002400804024010B5D0B10F
:1007600001680A6822F001020A6002680021116033
:1007700002685160026891600268D160144C02689E
:100780001423A24209D2134C2244B2FBF3F292008A
:100790000264114A0AE0012010BD0D4C644222445B
:1007A000B2FBF3F292000264094A083AC26390F87D
:1007B000403001229A40C36B5A608162C16201637A
:1007C0004163816380F8211080F82010002010BD63
:1007D00008040240F8FFFDBF000002402DE9F05F71
:1007E000C16B0A6801680B68046C4FF0040808FAD2
:1007F00004F8844D844E854FDFF814C2DFF814925C
:10080000DFF814A2DFF814B2DFF814E218EA020FDE
:1008100065D05FEA437862D50A68920603D40A6815
:1008200022F004020A60DFF8F0814FF48062016870
:1008300008F1140813011402414524D9A9420DD02E
:10084000B1420FD0B9421AD0614515D0494515D0F3
:10085000514501D1120312E0594501D104220EE0A5
:10086000714501D140220AE06D4D1435A94206D0F0
:100870006B4A2832914201D11A4600E0224667496C
:10088000091F0A6029E0A94213D0B14215D0B9422C
:1008900020D061451BD049451BD0514502D14FF4B2
:1008A000800217E0414502D14FF0806212E05945C5
:1008B00001D104220EE0714501D140220AE0584DD9
:1008C0001435A94206D0564A2832914201D11A461F
:1008D00000E022464B4908394A60C16A71E04FF096
:1008E000020808FA04F818EA020F70D05FEA837869
:1008F0006DD50A68920606D40A6822F00A020A60D8
:10090000012180F82110DFF810814FF40072016896
:1009100008F1140813011402414524D9A9420DD04D
:10092000B1420FD0B9421AD0614515D0494515D012
:10093000514501D1120312E0594501D102220EE0C6
:10094000714501D120220AE0354D1435A94206D067
:10095000334A2832914201D11A4600E022462F49FB
:10096000091F0A6029E0A94213D0B14215D0B9424B
:1009700020D061451BD049451BD0514502D14FF4D1
:10098000001217E0414502D14FF0007212E05945C4
:1009900001D102220EE0714501D120220AE0204D52
:1009A0001435A94206D01E4A2832914201D11A4676
:1009B00000E02246134908394A60002180F82010DF
:1009C000816A00291CD0BDE8F05F0847FFE70825D1
:1009D000A540154214D01A0712D50A6822F00E025B
:1009E0000A6090F84020C36B012101FA02F25A60BC
:1009F000816380F82110002180F82010016BE0E76E
:100A0000BDE8F09F080002401C0002403000024098
:100A100044000240580002406C00024008040240BA
:100A20001C04024030B560B11A4B026814219A428E
:100A300009D2194B1344B3FBF1F189000164174942
:100A40000AE0012030BD134B5B421344B3FBF1F1CC
:100A5000890001640F490839C163022180F821101F
:100A6000136843F6F0718B43F0E901142143D0E998
:100A700002452C432143046921434469214384698D
:100A8000214319431160002141630122427701771C
:100A9000084630BD08040240F8FFFDBF00000240D8
:100AA00070B5044690F82000002501280CD00120E4
:100AB00084F8200094F821600020012E06D084F8EC
:100AC00020000225284670BD022070BD022684F851
:100AD0002160A0632068066826F0010606602046B3
:100AE000FFF768FDE06A00282068016802D041F045
:100AF0000E0106E021F0040101602068016841F068
:100B00000A0101602068016841F001010160D9E734
:100B100070B5044600F0A0F90546601C02D00448F8
:100B20000078044400F098F9401BA042FAD370BD4D
:100B3000800000202DE9F04300233E4F0F2574E094
:100B400001229A400A406ED023F00304E619D6F839
:100B500008809C074FEA147C05FA0CF909EA08049E
:100B6000DFF8D480404502D14FF0000824E0DFF8E0
:100B7000CC80404502D14FF001081DE0DFF8C08075
:100B8000404502D14FF0020816E0DFF8B88040453A
:100B900002D14FF003080FE0DFF8AC80404502D1EE
:100BA0004FF0040808E0DFF8A480404502D14FF080
:100BB000050801E04FF0060808FA0CF8A04515D129
:100BC000D6F808C02CEA090CC6F808C0204E3468D4
:100BD00094433460341D266896432660241D26689D
:100BE00096432660241D266896432660FF2A01D876
:100BF000064601E000F104064FEA830401D9A4F19E
:100C00002004D6F800C005FA04F82CEA080C4FF0CE
:100C1000040808FA04F84CEA080CC6F800C0C468D6
:100C200024EA0204C46003F1010331FA03F287D11C
:100C3000BDE8F0830000014000080140000C0140C5
:100C4000001001400014014000180140001C014048
:100C5000000401402DE9F84FDFF8C891002409F1A4
:100C6000040A0AF1040B23460F270BF1040ED1E00E
:100C70000125A54006EA0502AA4276D1DFF8A8C1FF
:100C80004E68A6EB0C0866452BD00DDC032E34D045
:100C900005DC36B3012E19D0022E2FD11BE0112E08
:100CA00016D0122E2AD119E0B8F5881F19D006DC0B
:100CB000B8F5803F15D0B8F5801F1FD111E0B8F509
:100CC000001F0ED0B8F5041F18D10AE0CB6815E05C
:100CD000CB681B1D12E0CB6808330FE0CB680C33E8
:100CE0000CE08B682BB1012B4FF0080303D045615A
:100CF00004E0042302E0056100E00023FF2A01D89C
:100D0000064601E000F104064FEA840501D9A5F189
:100D10002005D6F8008007FA05FC28EA0C0803FA3B
:100D200005F548EA0508C6F800804D68ED0070D565
:100D30003E4DAE6946F00106AE61AD6924F0030692
:100D400005F0010500953A4D06EB050CDCF808505E
:100D5000A607360F07FA06F825EA0805DFF8D4805B
:100D6000404503D14FF0000825E052E0DFF8C8808D
:100D7000404502D14FF001081DE0DFF8C08040453A
:100D800002D14FF0020816E0DFF8B480404502D1EE
:100D90004FF003080FE0DFF8AC80404502D14FF080
:100DA000040808E0DFF8A080404502D14FF00508B4
:100DB00001E04FF0060808FA06F848EA0508CCF802
:100DC00008804D68D9F80060ED034D4601D5164303
:100DD00000E096432E604D68DAF80060AD0355469A
:100DE00001D5164300E096432E604D68DBF80060A5
:100DF000ED025D4601D5164300E096432E604D6836
:100E0000DEF80060AD02754601D5164300E096435A
:100E10002E60641C0A681646E2407FF429AFBDE8E4
:100E2000F88F000000040140000011100010024083
:100E30000000014000080140000C0140001001408A
:100E40000014014000180140001C01400AB101617A
:100E500070470904FBE70000014880687047000004
:100E60008000002002488168027811448160704748
:100E700080000020074810B5016841F010010160B2
:100E8000032000F08BF80F2000F006F800F024F8A3
:100E9000002010BD0020024070B50D4D04464FF4F7
:100EA0007A712878B1FBF0F00A490968B1FBF0F0DB
:100EB00001F04EF848B9102C07D200222146501EEE
:100EC00000F04CF800206C6070BD012070BD000087
:100ED000800000208C0000200F4808B5816941F097
:100EE00001018161816901F001010091C16941F055
:100EF0008051C161C069002200F0805000900F2134
:100F0000901E00F02BF80548416821F0E06141F0A7
:100F10000071416008BD0000001002400000014067
:100F200000280DDB00F01F020121914040098000E4
:100F300000F1E020C0F88011BFF34F8FBFF36F8F37
:100F40007047002809DB00F01F0201219140400991
:100F5000800000F1E020C0F800117047F0B40E4BA3
:100F60001B680C46C3F30223C3F10705042D00D907
:100F70000425191D072901D2002300E0DB1E0126EC
:100F800006FA05F1491E214099409E40761E164002
:100F90003143F0BC03F0EABD0CED00E0064900F07F
:100FA000070208684FF6FF03184040EA0220034A90
:100FB00010430860704700000CED00E00000FA05E7
:100FC00010B50C0607D501F0070101EB810100EB1C
:100FD000C100283005E001EB810100EBC10000F504
:100FE000B47099B232B1012202730181190C4181AE
:100FF000002010BD00220273C180F9E7704701EBA9
:10100000810200EBC202D0F8E802D26B02F04FBCC2
:1010100001EB810200EBC202D0F8E802D2F87C2199
:1010200002F0A8BC70B504460B0601F0070000EB07
:10103000800104EBC1014FF001024FF0000503D520
:1010400081F82920283103E081F8695101F5B47154
:10105000087094F8A802012808D084F8A822206813
:1010600003F0F0F884F8A852002070BD022070BD93
:1010700070B5044601F00F006268904201D901206A
:1010800070BD0B0601F0070000EB800104EBC1010D
:101090004FF001024FF0000503D581F829202831D7
:1010A00003E081F8695101F5B4718D70087094F80E
:1010B000A802012808D084F8A822206803F098F933
:1010C00084F8A852002070BD022070BD2DE9F05FA9
:1010D00004685FEA424C0B788D69B4F850C04FF059
:1010E00000064BF68F7948F2800A48F68F7B48F26B
:1010F000C00E4FF480672AD54FF0020808EBC308F2
:10110000C44407EB4C07E45BC4F30904A54203D3D2
:101110002D1B8D6101D00BE08E61066836F82350DF
:1011200005EA090585F4005545EA0A0526F8235025
:10113000520609D50D78036833F8252002EA0B0220
:1011400042EA0E0223F8252084B30A8929E04FF0F1
:10115000060808EBC308C44407EB4C07E45BC4F380
:101160000904A54203D32D1B8D6101D00BE08E61D4
:10117000066836F8235005EA090585F4005545EA66
:101180000A0526F82350520609D40B78056835F86D
:10119000232002EA0B0242EA0E0225F823202CB19A
:1011A0004A8949690068234603F098FC2046BDE857
:1011B000F09F2DE9F05F054600680C465FEA426C3F
:1011C00016468B692278B0F850C048F68F774CF2FB
:1011D00080094FF6FF7B4FF4004E4FF4806A4FF0CA
:1011E00000017BD54FF0020808EBC208E0440AEB8F
:1011F000480C30F80C00C0F30900834211D91B1AC7
:10120000A3610FD0730407D52E6836F822303B4017
:1012100043EA090326F8223094F82420012A50D00A
:101220004EE1A161607810B1012813D01AE028685E
:10123000B0F85030184400EB0210B0F8042422F447
:10124000F842A0F80424B0F8042442F40042A0F8C4
:10125000042407E02868B0F85030184400EB02106E
:10126000A0F804146278286812B1012A11D018E09D
:10127000B0F850100844217800EB0110B0F80C14BD
:1012800021F4F841A0F80C14B0F80C1441F400411A
:1012900005E0B0F850201044227800EB0210A0F8CE
:1012A0000C1421782846FFF7AAFE7004B8D52178DF
:1012B0002A6832F82100384040EA090022F821006B
:1012C000FEE0626902446261E2690244E26123690C
:1012D000226A9A4203D31846111A04E038E084F8CF
:1012E00024100AB110462162617811B1012923D07E
:1012F0002BE02968B1F850201144227801EB02114B
:1013000001F2044148B13E280FD84208C30700D07B
:10131000521C0BEA82220A8017E00A8822F4F84263
:101320000A800A8842F40042F5E74209C30600D168
:10133000521E4EEA8222EEE72968B1F8502011448D
:10134000227801EB0211A1F8040483B22289B3E0F0
:101350004FF0060808EBC208E0440AEB480C30F8EE
:101360000C00C0F30900834211D31B1AA3610FD0F4
:10137000730407D42E6836F822303B4043EA090351
:1013800026F8223094F82420012A50D098E0A16158
:10139000607810B1012813D01AE02868B0F85030F6
:1013A000184400EB0210B0F8042422F4F842A0F82C
:1013B0000424B0F8042442F40042A0F8042407E016
:1013C0002868B0F85030184400EB0210A0F804145C
:1013D0006278286812B1012A11D018E0B0F85010D4
:1013E0000844217800EB0110B0F80C1421F4F84106
:1013F000A0F80C14B0F80C1441F4004105E0B0F86A
:1014000050201044227800EB0210A0F80C14217830
:101410002846FFF7F4FD700452D42278296831F889
:101420002200384040EA090021F8220048E06269C1
:1014300002446261E2690244E2612369226A9A42DB
:1014400003D31846111A216204E00AB11046216242
:1014500084F824106278296812B1012A22D029E088
:10146000B1F850201144227801EB021101F20C4135
:1014700048B13E280FD84208C30700D0521C0BEADF
:1014800082220A8016E00A8822F4F8420A800A883A
:1014900042F40042F5E74209C30600D1521E4EEA6B
:1014A0008222EEE7B1F850201144227801EB0211BC
:1014B000A1F80C04628983B26169286803F02CFBEF
:1014C00021782A6832F8210048F6BF73184080F06E
:1014D000300048F28003184322F821000020BDE8C4
:1014E000F09F01F0070101EB810100EBC100D0F892
:1014F000840170472DE9F04104460F0601F0070012
:1015000000EB800104EBC1014FF001064FF0000534
:1015100003D581F82960283103E081F8695101F58C
:10152000B47108700A61CB704A7802B1C881022B8D
:1015300000D10D7194F8A802012809D084F8A8629E
:10154000206802F051FD284684F8A852BDE8F081D9
:101550000220FBE770B50C4601F0070505EB85019D
:1015600000EBC101C1E95F230022C1F8842181F8A9
:10157000692181F8685101F5B4716207006802F0D1
:101580008DFF002070BD70B504460D4601F00700C8
:101590006168884201D9012070BD29064FF000061C
:1015A0004FF0010207D500EB800104EBC10181F887
:1015B0002920283107E005EB850104EBC10181F802
:1015C000696101F5B4718A70087094F8A802012865
:1015D00007D084F8A822206802F046FF680702D0EE
:1015E00006E0022070BD04F52C71206802F0FEFEBA
:1015F00084F8A862002070BD70B50C4601F00705A4
:1016000005EB850100EBC101C1E90F23012281F83F
:101610004C208B6400234B6481F8292001F8285F5B
:101620006207006802F03AFF002070BD1FB5044653
:10163000006803F04FFA000402D5204601F082F959
:10164000206803F047FA40050CD5206830F8441FA5
:1016500021F480610180204600F026F90021204617
:1016600000F03DF9206803F035FA400405D5206804
:1016700030F8441F21F480410180206803F02AFAE9
:10168000800405D5206830F8441F21F40051018002
:10169000206803F01FFAC00414D5206830F8401FFA
:1016A00021F004010180206830F8401F21F008017A
:1016B0000180204600F00BF9206830F8441F21F427
:1016C00080510180206803F005FA00053ED52268AC
:1016D0000020694632F8203021F81030401CC0B29A
:1016E0000828F7D332F8400F40F00100108020683E
:1016F00030F8402F22F0010202802068B0F8442028
:101700005205FBD530F8442F22F48062028000207D
:10171000236831F8102023F82020401CC0B208288C
:10172000F6D3206830F8401F41F00801018020689E
:1017300030F8441F21F400610180206830F8401F18
:1017400041F004010180204600F0FEF8206803F01B
:10175000C1F9800508D5206830F8441F21F40071D4
:101760000180204600F0B7F8206803F0B3F9C00507
:1017700005D5206830F8441F21F4807101801FBD19
:101780002DE9F04186B0040004D094F8A9020025A8
:1017900020B108E0012006B0BDE8F08184F8A8522D
:1017A000204600F05BF8032084F8A902206802F0CC
:1017B000DDFD04F11001142288466846FEF722FD83
:1017C00094E80F0002F03CFD0226D0BB0021206807
:1017D00003F09AF9002001270FE000BF00EB800121
:1017E00004EBC10181F8297001F8280FC881CD7080
:1017F0000D614D61401CC0B28D6161688142EDD8C0
:10180000002011E000EB800104EBC10181F8695177
:1018100081F8680181F86B51C1F87851C1F87C51A9
:10182000401CC0B2C1F8805161688142EAD81422DC
:1018300041466846FEF7E6FC94E80F0002F08DFD95
:1018400010B184F8A962A5E784F8245084F8A9723D
:10185000206802F080FD00209DE7000008B50068C8
:101860000F4988421AD10F48C16941F40001C16192
:10187000C069002200F40000009011461320FFF719
:101880006DFB1320FFF75DFB002211461420FFF7CC
:1018900065FBBDE808401420FFF753BB08BD0000FE
:1018A000005C00400010024070B5044680680125CD
:1018B000022801D0FEF794FE2946D4F8E80202F08F
:1018C0006AF9D4F8E802BDE8704002F026B9D0F811
:1018D000E80202F04AB9D0F8E80202F050B910B5B7
:1018E000044690F8A80201280BD0012084F8A80231
:1018F00084F82410206803F009F9002084F8A80275
:1019000010BD022010BDD0F8E82200F52C71104661
:1019100002F04DB910B5044690F8A802012810D085
:10192000012084F8A802206803F0BEF801212046B7
:10193000FFF764FB206802F00CFD002084F8A80289
:1019400010BD022010BD000010B50446D0F8E8021A
:1019500002F06CF9A069002804D00348016841F046
:101960000601016010BD000010ED00E02DE9F84314
:1019700005460078354CC00754D0E0690026C00009
:1019800008D4E06940F08050E061E069012600F091
:10199000805000902E480168C90512D40168804625
:1019A00041F480710160FFF757FA074605E000BF78
:1019B000FFF752FAC01B642823D8D8F80000C005EE
:1019C000F6D5206A10F4407021D0A98801F4407146
:1019D00081421CD0206A1F49012220F440700A6015
:1019E00000220A602062C00711D0FFF735FA0746CF
:1019F00041F2883808E000BFFFF72EFAC11B4145CD
:101A000002D90320BDE8F883206A8007F4D5206A54
:101A1000696820F44070084320621EB1E06920F03C
:101A20008050E0612878800705D56068A96820F4B7
:101A30004040084360602878C00605D56068696941
:101A400020F48000084360600020DBE700100240C3
:101A500000700040400442422DE9F0470F46050067
:101A600061D0434E306800F00700B84209D23068B8
:101A700020F0070038433060306800F00700B842BB
:101A800051D128683B4C810712D5400703D56068C7
:101A900040F4E06060602878000703D5606840F497
:101AA000605060606068A96820F0F00008436060E2
:101AB0002878C00728D06868012810D0216802283B
:101AC00010D0890700292EDA616821F00301014353
:101AD0006160FFF7C1F9804641F288390DE0216865
:101AE0008903EFE78901EDE7FFF7B6F9A0EB0801FD
:101AF000494502D90320BDE8F0876068696800F0B5
:101B00000C00B0EB810FEFD1306800F00700B84255
:101B10000BD9306820F0070038433060306800F09F
:101B20000700B84201D00120E5E72878400705D535
:101B30006068E96820F4E060084360602878000786
:101B400006D56068296920F4605040EAC1006060F1
:101B500000F038F86168084AC1F30311515CC840CD
:101B60000649086006480068FFF796F90020C2E7BA
:101B70000020024000100240B85600088C000020EF
:101B8000840000200448054900684968044AC1F3FC
:101B90000221515CC84070478C00002000100240B8
:101BA000C85600080448054900684968044AC1F35A
:101BB000C221515CC84070478C00002000100240D8
:101BC000C856000812A185B00FC98DE80F0014A0F7
:101BD000144A006804905168134801F00C03042B68
:101BE00010D0082B0ED1C1F38343C9031DF80300A5
:101BF0000AD5516804AAC1F34041515C0A4A5043D6
:101C0000B0FBF1F005B0704708494843FAE700001F
:101C100002030405060708090A0B0C0D0E0F10102D
:101C2000010200000010024000127A0000093D008D
:101C30002DE9F84F040070D02078C04DC00749D07E
:101C40006868C0F38100012807D06868C0F381008C
:101C5000022809D16868C00306D52868800339D5F1
:101C600060680028E7D035E06068B0F5803F0BD0B1
:101C700010B1B0F5A02F11D0286820F48030286072
:101C8000286820F4802002E0286840F48030286032
:101C9000606890B1FFF7E0F806460AE0286840F473
:101CA00080202860F0E700BFFFF7D6F8801B64288B
:101CB00073D828688003F7D50CE0FFF7CDF8064607
:101CC00005E000BFFFF7C8F8801B6428F0D828683B
:101CD0008003F7D420789A4E80074FF001094FF027
:101CE000000839D5686810F00C0F07D06868C0F399
:101CF0008100022809D16868C00306D428688007DB
:101D000014D52069012808D110E02069B0B1C6F8C7
:101D10000090FFF7A1F8074605E00AE1FFF79CF8FD
:101D2000C01B0228C4D828688007F7D528686169D5
:101D300020F0F80040EAC10028600DE0C6F80080FD
:101D4000FFF78AF8074604E0FFF786F8C01B022871
:101D500023D828688007F7D4207800072CD5794845
:101D6000A169D9B1C0F80090FFF776F8074604E002
:101D7000FFF772F8C01B02280FD8686A8007F7D5F2
:101D800071484FF4FA510068B0FBF1F0009000BFC9
:101D90000098411E0091FAD20EE080E0C0F8008069
:101DA000FFF75AF8074604E0FFF756F8C01B022871
:101DB00075D8686A8007F7D42078400760D5E8694D
:101DC0000027C00008D4E86940F08050E861E86965
:101DD000012700F0805000905C480168C90513D4C9
:101DE0000168834641F480710160FFF735F882464F
:101DF00006E000BFFFF730F8A0EB0A0064284ED8D9
:101E0000DBF80000C005F5D5E06801280AD008B16C
:101E1000052813D0286A20F001002862286A20F0E3
:101E2000040002E0286A40F001002862E06841F204
:101E3000883B98B1FFF710F882460BE0286A40F023
:101E400004002862EEE700BFFFF706F8A0EB0A01E6
:101E500059455AD8286A8007F6D50CE0FEF7FCFFF2
:101E6000824605E0FEF7F8FFA0EB0A0159454CD881
:101E7000286A8007F6D41FB1E86920F08050E86135
:101E8000E06988B36968C1F38101022944D002285E
:101E9000C6F8608004D0FEF7DFFF044638E034E087
:101EA000FEF7DAFF074604E0FEF7D6FFC01B022864
:101EB0002BD828688001F7D4206AB0F5803F05D17F
:101EC0006868A16820F4003008436860D4E908011C
:101ED0000843696821F4741108436860C6F860908B
:101EE000FEF7BAFF044606E025E000BFFEF7B4FFA8
:101EF000001B022809D828688001F7D51BE000BF25
:101F0000FEF7AAFF001B022802D90320BDE8F88FC4
:101F100028688001F4D40EE00128F7D06868226AAE
:101F200000F48031914204D1616A00F4701088425B
:101F300001D00120EAE70020E8E70000001002409D
:101F400000004242800442428C00002000700040A9
:101F500010B5401EB0F1807F01D3012010BD4FF0BD
:101F6000E02460610F21601702F000FE0020A061F4
:101F700007202061002010BD704710B5044600689E
:101F8000416994F83D20C1F3C011212A0BD151B110
:101F9000416921F080014161606B08B1FEF722FBCD
:101FA000204600F08FFF2068416994F83E20C1F37D
:101FB0008011222A0BD151B1416921F040014161C8
:101FC000A06B08B1FEF70EFB204600F063FF002077
:101FD00010BD10B5040014D0242084F83D00206802
:101FE000C16821F40051C160204600F045F900208D
:101FF000206484F83D0084F83E0044F8300F2073DC
:1020000010BD012010BD7047F8B502680446106885
:10201000D168536910F00F0F4FF0000553D003F053
:10202000010601F4907737435FD0C20705D0CA0597
:1020300003D5226C42F001022264420705D5DA077B
:1020400003D0226C42F002022264820705D5DA072F
:1020500003D0226C42F004022264020707D501F08B
:102060002002324303D0226C42F008022264226C28
:10207000002A34D0800604D5880602D5204600F018
:102080002AFF20684069216CC0F38010090700D442
:1020900030B3204600F0FEFE2068416949061BD59A
:1020A000416921F040014161A06BA8B158494163E9
:1020B000A06BFEF7BBFA002811D0A06B416B01B0FA
:1020C000BDE8F040084783060FD58B060DD52046A6
:1020D000BDE8F84000F0FFBE2046FFF794FFF8BDD2
:1020E0002046FFF790FF2564F8BD266B2023012EC4
:1020F00052D1C60650D5CE064ED510685068009015
:10210000506940062AD5A16B086840680004000C9D
:10211000EAD0A68D8642E7D9E0858869202818D0C4
:10212000D06820F48070D0602068416921F00101FE
:1021300041612068416921F04001416184F83E30ED
:1021400025632068C16821F01001C160A06BFEF713
:1021500049FAA08DE18D401A81B219E0A08DE18D80
:10216000401A81B2E08D0028BED00029BCD0D068D2
:1021700020F49070D0602068426922F00102426130
:1021800084F83E3025632068C26822F01002C260E5
:102190002046FFF7F1FEF8BD05062BD50D0629D523
:1021A00094F83D002128F6D1A068B0F5805F01D1F8
:1021B0002069B0B1206A411C216221680078486022
:1021C000E08C401E0004000CE084E4D12068C1686B
:1021D00021F08001C1602068C16841F04001C16008
:1021E000F8BD206A0088C0F308005060206A801C97
:1021F0002062E5E74006F3D54806F1D5D1682046D0
:1022000021F04001D16084F83D3000F027FAF8BD9C
:102210008F2D000870B5040004D094F83D0000250F
:1022200010B106E0012070BD84F83C50204600F05B
:1022300073F8242084F83D002068C16821F400511F
:10224000C160204600F0A2FE2068016921F490419F
:1022500001612068416921F02A0141612068C1685B
:1022600041F40051C1602564202084F83D0084F8C9
:102270003E00002070BD000010B504460068204BF1
:102280002049214A984210D1886920F48040886111
:102290004FF4C0611046FEF74DFCA06BFEF75EFAEE
:1022A000606BFEF75BFA252025E0184B98420FD1B2
:1022B000C86920F40030C8610C211046FEF73AFCD2
:1022C000A06BFEF74BFA606BFEF748FA262012E08F
:1022D0000F4A904213D1C86920F48020C8614FF49E
:1022E00040610C48FEF726FCA06BFEF737FA606BE6
:1022F000FEF734FA2720BDE81040FEF711BE10BDEE
:102300000038014000100240000801400044004035
:1023100000480040000C01402DE9F04385B0002545
:1023200000950195029503950446DFF85C82D0F88C
:1023300000C0964802210322954B102780264FF4B7
:102340008069C4455AD1D0F818C04CF4804CC0F80C
:1023500018C0D0F818C00CF4804CCDF810C0D0F8DC
:1023600018C04CF0040CC0F818C08069039200F04B
:10237000040004900802CDE9000169469846184619
:10238000FEF768FCCDE90095694640460295FEF7E8
:1023900061FCDFF804827F494046B146C0E9001580
:1023A000C0E90256C8F81050C8F81450C8F81850C0
:1023B000C8F81C50FEF736FB08B1FEF711F9764E4F
:1023C0007448C4F8388044361438C8F82440306063
:1023D000C6E90175C6E903957561B5613046F561D9
:1023E000FEF720FB08B1FEF7FBF86663002205212B
:1023F00025207462FEF7B2FD252065E0DFF89C81A0
:10240000C44566D1D0F81CC04CF4003CC0F81CC0D8
:10241000D0F81CC00CF4003CCDF810C0D0F818C0A7
:102420004CF0040CC0F818C08069039200F004005E
:1024300004900420CDE90001694698461846FEF74D
:1024400009FC0820CDE90005A946694640460295E9
:10245000FEF700FCDFF840814E4908F1880840464D
:102460001431C0E90015C0E90256C8F81050C8F888
:102470001450C8F81850C8F81C50FEF7D3FA08B129
:10248000FEF7AEF8444D4348C4F83880CC352830C8
:10249000C8F82440C5E90007C5E90296C5F81090C0
:1024A000C5F81490C5F818902846C5F81C90FEF79A
:1024B000B9FA08B1FEF794F86563002205212620D9
:1024C0006C62FEF74BFD2620FEF73BFD05B0BDE834
:1024D000F083334B9C45F9D1C36943F48023C36136
:1024E000C36903F480230493836943F00803836181
:1024F0008069CDE9009100F00800CDE90320DFF804
:10250000A48069464046FEF7A5FB4FF40060CDE984
:102510000005694640460295FEF79CFBDFF888807F
:102520001C4940462839C0E90015C0E90256C8F8E0
:102530001050C8F81450C8F81850B146C8F81C50CC
:10254000FEF770FA08B1FEF74BF8174E1148C4F8C1
:10255000388044363C38C8F824403060C6E90175FC
:10256000C6E903957561B5613046F561FEF75AFA23
:1025700008B1FEF735F86663002205212720746252
:10258000FEF7ECFC27209FE70038014000100240D6
:102590000008014058000240DC12002000440040C6
:1025A00000480040000C0140EC13002090F83E3041
:1025B000202B0ED159B152B190F83C30012B08D0EC
:1025C000012380F83C300023036300F03BBD012071
:1025D00070470220704770477047000070B504468E
:1025E00090F83D00202830D169B362B394F83C00E4
:1025F00001282AD0012084F83C002162A284E284D0
:1026000000252564212084F83D00636B1048986202
:10261000636B1048D862636B0F481863606B134696
:1026200045632668606B321DFEF73AFA21686FF049
:102630004000086084F83C502068416941F0800106
:102640004161002070BD012070BD022070BD0000FE
:102650005D2E00088B2E00089F2D0008074A0121DF
:10266000904208D0064A904201D1032103E0054A76
:10267000904200D10521044800F0E0BE1012002075
:102680005412002098120020741400207047FEE7B6
:10269000F0B500230A24302537261F4611E000BF7D
:1026A000B4EB107F02D905EB107C01E006EB107C47
:1026B00001F813C001EB430C00015B1C8CF80170A6
:1026C000DBB29342ECD3F0BD1D4808B5416941F03F
:1026D000010141614069002200F0010000900521E4
:1026E0000C20FEF73BFC0C20FEF72BFC0022052102
:1026F0000D20FEF733FC0D20FEF723FC0022052100
:102700000E20FEF72BFC0E20FEF71BFC00220521FD
:102710000F20FEF723FC0F20FEF713FC00220521FB
:102720001020FEF71BFC1020FEF70BFC00220521F9
:102730001120FEF713FCBDE808401120FEF701BC94
:102740000010024010B58EB002F0F6FD0C4C1C22B9
:102750000C4920606846FDF755FD0021684602F0EF
:102760004BFA084960601C221C3107A8FDF74AFD9E
:10277000002107A802F040FA60600EB010BD000012
:10278000000000208056000810B586B000200090A0
:102790000190029003901648816941F02001816107
:1027A000816901F020010491816941F00401816196
:1027B000816901F004010491816941F0080181619E
:1027C00080690C4C00F0080004900122072120468B
:1027D000FEF73CFB07200121CDE900010320CDE9F4
:1027E000021069462046FEF735FA06B010BD00001B
:1027F00000100240000C014010B5114C0F480C2194
:1028000020604FF4E13060600020A060E060C4E927
:102810000401A061E0612046FFF7FCFC08B1FDF770
:10282000DFFE2068C16841F01001C160BDE81040C2
:102830004FF4007203490248FFF7B8BE0038014068
:1028400010120020A805002010B5114C0F480C21D3
:1028500020604FF4E13060600020A060E060C4E9D7
:102860000401A061E0612046FFF7D4FC08B1FDF748
:10287000B7FE2068C16841F01001C160BDE810409A
:102880004FF4007203490248FFF790BE0044004035
:1028900054120020AE09002010B5114C0F480C2135
:1028A00020604FF4E13060600020A060E060C4E987
:1028B0000401A061E0612046FFF7ACFC08B1FDF720
:1028C0008FFE2068C16841F01001C160BDE8104072
:1028D0004FF4007203490248FFF768BE0048004009
:1028E00098120020B40D002010B501F047FD012220
:1028F0000F49104800F0B4FF08B1FDF771FE0E4912
:102900000C4801F0B9F908B1FDF76AFE0B49094816
:1029100000F0A8FD08B1FDF763FE064801F002FAD9
:10292000002803D0BDE81040FDF75ABE10BD0000DE
:102930000800002074140020100300207000002004
:10294000FEE7FEE72DE9F84F044640F68F7B48F698
:102950000F7A4FF002094FF4806874E1B0F8441028
:1029600011F00F063AD030F8267039047DD530F8D2
:10297000261001EA0B0141F0800120F8261006EB39
:10298000860004EBC00595F8740105F5B4750028C0
:102990006CD0E87802286AD02878226832F82010B3
:1029A00048F68F73194048F2C003194322F82010EB
:1029B0002878D4F800C03CF82010BCF85020490416
:1029C0007ED509EBC000111808EB41003CF800006F
:1029D0008005800D009074D02A89D8E0C9062DD4D6
:1029E000018801EA0A0141F400410180216804F1F3
:1029F0002805B1F850202B7809EBC300024408EBFE
:102A00004200085AC0F309006064E16B0844E063C7
:102A100000212046FEF7F3FA94F8240000289CD009
:102A2000A869002899D194F82400216840F080001A
:102A3000A1F84C00002084F8240004E1018804F58A
:102A4000B4750A0521D5B0F850202B78062101EB8A
:102A5000C3010A4408EB4201405A04F52C71C0F34B
:102A60000903EB61EA88206802E0ACE068E07AE004
:102A700002F034F82168088800EA0B0040F080007A
:102A800008802046FEF73FFFDDE00904D5D5018828
:102A900001EA0B0141F0800101802068B0F850206C
:102AA0002B78062101EBC3010A4408EB4201405A8E
:102AB00083059B0DEB6110D0696971B1EA8801E073
:102AC00058E056E0206802F009F8E96968690844AE
:102AD000686100212046FEF79BFA206801880905FD
:102AE0002DD4B0F850100844296900F20C4051B1BF
:102AF0003E2910D84A08C90700D0521C4FF6FF7172
:102B000001EA82210FE0018821F4F8410180018867
:102B100041F4004107E04A09C90600D1521E4FF4B2
:102B2000004141EA82210180206801884BF68F72C2
:102B3000114081F4405148F280021143018082E04B
:102B4000D4F800C0BCF850102A78062000EBC20070
:102B5000014408EB41003CF800008005800D009026
:102B60001AD0EA8813E03A4629462046FEF7AEFA24
:102B7000009011E0062101EBC000111808EB4100A4
:102B80003CF800008005800D009005D06A8903465E
:102B90006046696901F0A2FFE96900980844E861AC
:102BA0006969009808446861A86918B129690098A2
:102BB000814204D929782046FEF72AFA03E0294603
:102BC000206801F06BFC38063DD506EB860004EB6F
:102BD000C001206830F8262002EA0A0242F40042CE
:102BE00020F8262091F82B002831032804D018B1B2
:102BF000022824D1F80522D42368B3F850200D7898
:102C000009EBC500024408EB4200185A8A69C0F378
:102C1000090082420CD9121A8A610BD04A69024417
:102C20004A61CA691044C861206801F037FC0AE0B3
:102C300000208861E9B22046FEF7E1F903E03A4658
:102C40002046FEF7B6FA2068B0F8441009043FF5B4
:102C500085AE0020BDE8F88F234C00BF94F8000437
:102C6000C00711D0B4F8022420492148FDF7CAFA60
:102C7000B4F8021481221E48FDF7CAFB94F8000440
:102C800020F0010084F8000494F80608C00711D071
:102C9000B4F8082817491648FDF7B4FAB4F808182C
:102CA00083221348FDF7B4FB94F8060820F00100D6
:102CB00084F8060894F80C0CC00711D0B4F80E2C58
:102CC0000D490B48FDF79EFAB4F80E1C8522084802
:102CD000FDF79EFB94F80C0C20F0010084F80C0C1E
:102CE000012001F07DFFB9E7A8030020A80500201E
:102CF000201D0020AE090020B40D002010B5FEF705
:102D0000B1F802F0E9FB012803D0BDE8104002F061
:102D100075BB10BD30B595B028216846FDF78BFA1C
:102D200014210AA8FDF787FA18210FA8FDF783FAE6
:102D300001210804CDE90010002402940225049129
:102D4000CDE907504FF4E01009906846FEF770FF98
:102D500008B172B6FEE70F20CDE90A054FF4806096
:102D6000CDE90C4002210AA80E94FEF775FE08B1C9
:102D700072B6FEE7102014940F900FA8FEF7F6FD30
:102D8000002801D072B6FEE715B030BD704710B50F
:102D9000406A0021C185C184FFF735F910BD70B5C7
:102DA000446A2068406994F83D10C0F3C0100025C3
:102DB000212904D118B1E584204600F083F8206869
:102DC000406994F83E10C0F38010222904D118B154
:102DD000E585204600F05EF8206C40F0100020648D
:102DE0002046FFF710F970BD10B50146406A09682A
:102DF000096889061BD40021C1850168CA6822F4CC
:102E00008072CA6001684A6922F001024A61016861
:102E10004A6922F040024A61202180F83E10016B8D
:102E2000012904D10168CA6822F01002CA60016B4E
:102E3000012902D0FFF7CFFB10BD818DFFF79CF871
:102E400010BD10B5406A016B012902D0FFF7C4FB29
:102E500010BD818D4908FFF78FF810BD10B50146F0
:102E6000406A0968096889060CD40021C184016898
:102E70004A6922F080024A610068C16841F040015D
:102E8000C16010BDFFF7EAFB10BD10B5406AFFF747
:102E9000FDFB10BD0168CA6822F49072CA60016827
:102EA0004A6922F001024A61016B012904D10168DB
:102EB000CA6822F01002CA60202180F83E1000216A
:102EC000016370470168CA6822F0C002CA6020210D
:102ED00080F83D10704708B590F83E10222901D0C7
:102EE000022008BD82684FF480539A4201D10169E3
:102EF00021B1816A9A421BD04AB10AE00268816A14
:102F00005268C2F308020A80816A891C08E00269DB
:102F100072B10268526802F07F020A70816A491C2D
:102F20008162C18D491E0904090CC18503D019E0D5
:102F300002685268F1E70168CA6822F02002CA609C
:102F40000168CA6822F48072CA6001684A6922F086
:102F500001024A61202180F83E10016B012903D053
:102F6000FFF739FB002008BD002101630168CA6832
:102F700022F01002CA6001680A68D20602D50A6807
:102F800049680091818DFEF7F7FFEBE770B50446C5
:102F900000680169E26821F440511143016121692F
:102FA000A0680843616908432168CA6841F20C635C
:102FB0009A430243CA6020684169A26921F44071C2
:102FC000114341611E492068884202D1FEF7EAFDA3
:102FD00001E0FEF7D7FD00EBC00101EB00126068D5
:102FE00064218000B2FBF0F3B3FBF1F36FF018063D
:102FF0007343B2FBF0F5B2FBF0F605EB8305322329
:1030000003EB0515B5FBF1F5B6FBF1F605F0F005A0
:1030100005EB0615B2FBF0F6B2FBF0F0B0FBF1F0F9
:103020006FF01802504306EB800003EB0010B0FB7A
:10303000F1F0216800F00F002844886070BD0000A6
:103040000038014038B58162828500251346044668
:103050000564222084F83E00A26B13489062A26BA4
:103060001248D062A26B12481063A06B0A464563F7
:103070002168A06B091DFDF713FD206801684168F8
:10308000009184F83C50C16841F48071C1602068AF
:10309000416941F0010141612068416941F040010D
:1030A0004161002038BD0000E92D0008432E0008D2
:1030B0009F2D0008124808B500680168C943C90679
:1030C00013D40168406800900D48FEF756FF0D4884
:1030D00000684068C0F500710B48A0F8021490F831
:1030E000001441F0010180F800144FF40072074908
:1030F0000348FFF75BFABDE808400148FEF784BFCC
:1031000010120020DC120020A8030020A8050020D7
:10311000124808B500680168C943C90613D401689C
:10312000406800900D48FEF728FF0D480068406891
:10313000C0F500710B48A0F8081890F8061841F087
:10314000010180F806184FF4007207490348FFF7A1
:103150002DFABDE808400148FEF756BF5412002082
:1031600064130020A8030020AE090020124808B50F
:1031700000680168C943C90613D40168406800901B
:103180000D48FEF7FAFE0D4800684068C0F5007172
:103190000B48A0F80E1C90F80C1C41F0010180F8BF
:1031A0000C1C4FF4007207490348FFF7FFF9BDE814
:1031B00008400148FEF728BF98120020EC130020B9
:1031C000A8030020B40D00202DE9F041D0F8C03252
:1031D000D0F8B822CAB101EB810500EB85040026C6
:1031E000E7693FB103EBC5039B6BB7FBF3F503FB4B
:1031F000157323B1C2F814620020BDE8F0810023EA
:103200001A46E66100F01BFDF6E70220F5E770B50F
:103210000E460546D0F8B84200F0EDFBC4F80C02AB
:10322000D5F8B80250B1D5F8BC12D4F80402324631
:10323000CB6804F503719847002070BD022070BD73
:1032400070B504460026812100F028FB00250121ED
:103250002046E56200F022FB82212046C4F86C5132
:1032600000F01CFB83212046256400F017FB03219E
:103270002046656500F012FB84212046C4F8945175
:1032800000F00CFB85212046A56600F007FB052118
:103290002046E56700F002FB86212046C4F8BC51B9
:1032A00000F0FCFAC4F89050D4F8B80248B1D4F851
:1032B000BC0204F52E7440688047206800F08FFE41
:1032C0002560304670BD70B5D0E9AE4171B194F85B
:1032D0000062FF2E0AD0B0F8AC328D6894F801225B
:1032E00021463046A847FF2084F80002002070BD28
:1032F0000A2101800048704794000020CF210180FE
:103300000048704770010020CF21018000487047BD
:10331000A0000020CF21018000487047400200201B
:103320002DE9F0410446007C002601254FF400778A
:1033300000286DD0402302228121204600F0D8FBD6
:103340004023022201212046E56200F0D1FB402308
:10335000022283212046C4F86C5100F0C9FB4023AF
:10336000022203212046656500F0C2FB40230222B1
:1033700085212046C4F8945100F0BAFB4023022274
:1033800005212046656500F0B3FBC4F8BC51082355
:1033900003228221204600F0ABFB08230322842174
:1033A0002046256400F0A4FB082303228621204642
:1033B000A56600F09DFB4FF40770C4F8905000F034
:1033C0000FFEC4F8B80298B30546D4F8BC020068F2
:1033D00080470020C5F81402C5F81802207CD5F8F3
:1033E000042240B340230121204605F5017500F079
:1033F0008BFB4023032120462A6800F085FB4023F5
:103400002A680521204600F07FFB3046BDE8F081A8
:103410003B4602228121204600F06AFB3B46022205
:1034200001212046E56200F063FBC4F86C51AEE771
:10343000FFE70126E9E73B460121E3E710B5D0F8B5
:10344000B8226AB1037CD2F804222BB15FF04003AA
:1034500000F05AFB002010BD4FF400730121F7E784
:10346000022010BD02460220002902D00020C2F82E
:10347000BC127047D0F8B802C0F8041200207047A0
:10348000D0F8B802C0F81022C0F808120020704727
:103490002DE9FC410546D0F8B87200208DF80000F7
:1034A000ADF80400064608780C4610F0600127D0FD
:1034B000202941D1E288CAB100060BD5D5F8BC124B
:1034C000B5F8AC326078D1F808C03946E047E288F8
:1034D000394629E0607887F80002A07987F8010270
:1034E000E2883946284600F071F82AE0D5F8BC1287
:1034F000B5F8AC3260788D6800222146A84720E0FC
:10350000607820B10A2809D00B2815D110E095F871
:103510009C02032810D1022201A905E095F89C0223
:10352000032809D101226946284600F069F808E01D
:1035300095F89C02032804D02146284600F03BF869
:1035400002263046BDE8FC8110B5D0F8B822CAB1D9
:10355000D2F814320BB1012010BD0123C2F814328D
:1035600001F00F0404EB840400EB8404D2F8103261
:10357000E361B2F81032D2F808229BB200F05FFB90
:10358000002010BD022010BD10B5D0F8B422526842
:103590009047002010BD134610B50A46002100F0E8
:1035A000B3FA002010BD134610B50A46002100F002
:1035B00046FB002010BD10B50446802100F024FB1E
:1035C0002046BDE81040002100F01EBB10B50323CB
:1035D000C0F85C21C0F89432C0F8602113460A4656
:1035E000002100F091FA002010BD10B50521002344
:1035F000C0F894121A46194600F086FA002010BD51
:1036000010B50223C261C0F89432026213460A4622
:10361000002100F014FB002010BD10B50421002390
:10362000C0F894121A46194600F009FB002010BD9C
:1036300010B50A46024903A000F0E2F8004810BDA8
:103640003817002043444320436F6E6669670000CB
:1036500012200880004870472800002010B50A4654
:10366000024903A000F0CCF8004810BD3817002034
:1036700043444320496E74657266616365000000CF
:1036800004200880004870472400002010B50A4636
:10369000024903A000F0B4F8004810BD381700201C
:1036A00053544D6963726F656C656374726F6E69B4
:1036B0006373000010B50A46024903A000F0A0F8A9
:1036C000004810BD3817002053544D33322056693E
:1036D000727475616C20436F6D506F7274000000DE
:1036E00010B51A2008800A480168001D0468001DF2
:1036F0000068081809D008220649FEF7C9FF0549E5
:10370000042210312046FEF7C3FF0248801E10BD80
:10371000E8F7FF1F3E000020F8B504460020ADF892
:10372000000048880D46010A082948D2DFE801F068
:103730004704091747473C45D4F8B012207C0A6873
:1037400019E0207C02260028D4F8B40205D0C16A12
:1037500068468847014646703EE0816AF8E7C0B295
:1037600006282CD2DFE800F0030A1014181CD4F845
:10377000B002426805E0694690471CE0D4F8B00208
:103780008268E2B1207CF6E7D4F8B002C268F8E7BC
:10379000D4F8B0020269F4E7D4F8B0024269F0E765
:1037A000D4F8B0028269ECE7207C40B9D4F8B402C6
:1037B000416B6846884701460EE0207C20B12946CF
:1037C0002046FFF7F8FEF8BDD4F8B402016B684656
:1037D0008847014607204870BDF8000048B1EA88D4
:1037E00052B1824200D90246ADF800202046FFF7D0
:1037F00007FFE8880028E6D12046FFF70EFFF8BD56
:1038000070B5002300281ED00446002502E06D1C80
:10381000EDB2641C2678002EF9D1022404EB450495
:1038200014801278CA545B1C0322CA5400245B1C07
:1038300006E0CA545B1CDAB28C54521CD3B2401C52
:103840000278002AF5D170BD01004FF0000004D0CD
:10385000012901D0022901D00220704701207047C0
:1038600010B580B1D0F8B43213B10023C0F8B4322F
:1038700009B1C0F8B012012180F89C12027000F06A
:10388000BFF8002010BD022010BD10B5D0F8C00256
:10389000FDF7EEFBBDE81040FFF7D6BF10B5D0F83E
:1038A000C002FDF7BFFBBDE81040FFF7CDBF2DE91B
:1038B000F0411746044651B1D4F8B40242691AB136
:1038C00094F89C02032851D00220BDE8F081D4F87E
:1038D0009432002504F11400022B03D0042B3AD0BB
:1038E000C3B33CE0D0E903639E4207D9F11AC1603B
:1038F0008AB239462046FFF756FE12E08068B0FBD8
:10390000F3F103FB110199B9984211D3D4F898123D
:1039100088420DD2002211462046FFF744FEC4F82B
:10392000985200231A461946204600F0EDF816E09A
:10393000D4F8B402C16829B194F89C02032801D1DB
:10394000204688478021204600F05EF92046FFF798
:103950004CFE04E0FFE78021204600F055F994F882
:10396000A002012804D184F8A05201E0204690472B
:103970000020AAE770B51546044649B1D4F8B40250
:1039800082691AB194F89C02032830D0022070BDDD
:10399000D4F8941204F5AA70032902D005291ED088
:1039A00027E0D0E903218A420BD9531AC3600846A5
:1039B000834200D303469AB229462046FFF7EBFD27
:1039C00017E0D4F8B402016929B194F89C020328E5
:1039D00001D1204688472046FFF71FFE09E000205E
:1039E0000146C4F89402204600F00EF901E020469A
:1039F0009047002070BDD0F8C002FDF772BD0000F6
:103A000070B50446304831493025C0F8E842C4F862
:103A1000C0020160082141600221816000218161B2
:103A2000C1610162FDF7ACFE08B1FCF7D9FD0022CF
:103A3000D4F8C0022B46114604F53074FDF7C0FAE5
:103A40006023002280212068FDF7BAFA902300222B
:103A500081212068FDF7B4FAC0230022822120686A
:103A6000FDF7AEFAD023002201212068FDF7A8FA65
:103A70004FF48073002283212068FDF7A1FA4FF4F0
:103A80009873002284212068FDF79AFA4FF4A073FE
:103A9000002203212068FDF793FA4FF4B873002247
:103AA00085212068FDF78CFA4FF4D073002286211F
:103AB0002068FDF785FA4FF4D873002205212068AD
:103AC000FDF77EFA002070BD28230020005C004036
:103AD0000A0601F07F01D0F8C00201EB810100EB82
:103AE000C10002D590F82A00704790F86A0170472B
:103AF00010B51C461346D0F8C0022246FDF7FAFC6A
:103B0000BDE81040FFF7A0BE10B5D0F8C002FDF729
:103B100021FDBDE81040FFF797BE70B500220446B6
:103B200040231146FFF7E4FF40260125C4F86461F5
:103B30003346002280212046C4F85851FFF7D8FFB1
:103B40006662A56184F89C520020C4F8940260600B
:103B5000C4F8A402D4F8B80228B1D4F8B402002101
:103B6000426820469047002070BD90F89C120429BE
:103B700003D190F89D1280F89C120020704710B578
:103B800090F89C12032904D1D0F8B412C96901B18C
:103B90008847002010BD01740020704710B5D0F890
:103BA000C002FDF79CFEBDE81040FFF74DBE70B5AA
:103BB000044600F52A70054600F04AF80120C4F8D2
:103BC0009402B4F8AE02C4F8980294F8A80210F077
:103BD0001F010AD001290DD0022910D000F0800168
:103BE000204600F011F8002070BD2946204600F064
:103BF0009EF8F8E72946204600F0CAF9F3E729467F
:103C0000204600F01DF9EEE710B5D0F8C002FDF730
:103C1000BAFCBDE81040FFF717BE10B5D0F8C002DF
:103C2000FDF778FEBDE81040FFF70EBE90F89C123D
:103C300080F89D12042180F89C120020704710B576
:103C4000D0F8C002FDF7D8FCBDE81040FFF7FCBD7E
:103C50000A7802704A7842708A78CB7802EB0322A5
:103C600042800A794B7902EB032282808A79C979F2
:103C700002EB0121C18070470246002011B1C2F859
:103C8000B41270470220704710B5D0F8B422022455
:103C90001AB11268904700B90024204610BD0000F8
:103CA00070B50E461E4D897804462970012931D819
:103CB00094F89C0202280BD003280FD031462046EE
:103CC000FFF779FC29782046BDE87040FFF75CBC1F
:103CD000D9B10320616084F89C0209E071B1606889
:103CE000884212D0C1B22046FFF74EFC29786160AD
:103CF0002046FFF7C9FF02280CD006E0022084F816
:103D00009C0220466160FFF73FFC2046BDE8704002
:103D1000FFF783BC31462046BDE87040FFF74BBC3F
:103D20009000002010B5FFF778FF002010BD2DE9AE
:103D3000F0410A78002612F0600208D0202A01D053
:103D4000402A70D1D0F8B422926890476DE04B7849
:103D5000002201250A2B66D2DFE803F0405D65579B
:103D6000650805652C29FFF7D7FC5EE004468888C6
:103D7000D8B9C888C8B94888802816D200F07F070B
:103D800094F89C02032810D084F89E72394620468D
:103D9000FFF704FF2046FFF740FC1FB1022084F824
:103DA0009C0242E084F89C523FE020463BE0FFF753
:103DB00077FF3AE0CB88012B35D190F89C32012B6C
:103DC00004D0022B02D0032B2DD104E0826001220B
:103DD00000F1080116E00122011D13E090F89C2279
:103DE000012A03D0022A01D0032A1CD1CA88022A40
:103DF00019D1C560D0F8A41209B10321C160022213
:103E000000F10C01FFF7FCFB0FE0498801290CD100
:103E1000C0F8A45211E090F89C32012B08D0022B7C
:103E200006D0032B04D0FFF7C6FB3046BDE8F08177
:103E300049880129F9D1C0F8A422FFF7EEFBF4E785
:103E40002DE9F0410A46044610780027097910F060
:103E500060030AD0202B01D0402B50D1D4F8B402FB
:103E600011468368204698478FE0C0F3411001282F
:103E700006D05078D0B301282AD003283FD107E0DC
:103E8000D4F8B402114683682046BDE8F0411847D3
:103E900094F89C02022802D0032872D10AE071B380
:103EA00080296ED02046FFF7AFFE80212046FFF725
:103EB000ABFE6AE0508838B931B1802904D0D0888F
:103EC00010B92046FFF7A0FE2046FFF7A6FB5CE0F6
:103ED00094F89C020228E2D0032852D1508898BB63
:103EE0004806F1D02046FFF7D0FCEDE7FFE794F855
:103EF0009C020026022803D0032842D112E040E0B1
:103F000009B180293DD1080601F07F0000EB800057
:103F100004EB800101D5143101E001F5AA71022200
:103F20000E602AE0080601F00F0000EB800004EBB1
:103F300080000AD5806920B301F07F0000EB80008B
:103F400004EB800514350BE01FE0D0F85801C0B138
:103F500001F07F0000EB800004EB800505F5AA75F9
:103F600041B1802906D02046FFF7B2FD10B10120F3
:103F7000286000E02E60022229462046FFF740FB21
:103F800003E011462046FFF716FB3846BDE8F081F6
:103F900070B5054608780C4610F0600003D0202864
:103FA00001D0402816D195F89C02012803D00228A0
:103FB00001D003280ED1207905280BD8D5F8B402FA
:103FC000826828469047E188014306D12846FFF7DA
:103FD00024FB02E02846FFF7EEFA002070BD704790
:103FE00000487047082100202DE9F0470C78002692
:103FF00030F8243048F68F121340CA78002A7DD05A
:10400000012A7CD0022A02D0032A7FD0012648F25E
:104010008002134320F824300D7830F8254048F60C
:104020008F731C402C43144320F825400D7B48F22D
:10403000C00C48F6BF744CF280074BF68F79EDB395
:1040400091F80080C24630F8285048F280181D4090
:1040500045EA080520F82A50B0F8505091F8008041
:10406000054405EB0815B1F8088028F00108A5F80B
:104070000084B0F8505091F80080054405EB081515
:10408000B1F80A8028F00108A5F808844D78002DC1
:104090000D7830F825804FEA48487DD0B8F1000F00
:1040A00007DA30F8258008EA030848EA070820F80C
:1040B00025800F7830F827506D0600E02CE006D5FB
:1040C00030F827501D4045EA0C0520F82750CB78E2
:1040D0000D78012B30F8253003EA040301D083F07A
:1040E0002003134320F825300B7830F8231001EA21
:1040F0000901114320F82310304602E003E008E0F4
:1041000004E0BDE8F08743F4007380E743F4C06344
:104110007DE743F480637AE74D782DB3B0F85050D3
:104120000F78054405EB0715CF8827F00107A5F8A0
:1041300000740F7830F827506D0606D530F82750F8
:104140001D4045EA0C0520F82750CB78012B06D0FE
:104150000B7830F82310214081F02001C9E70B785B
:1041600030F823102140C4E7B0F850400D780444E3
:1041700004EB0514CD8825F00105A4F80854B0F827
:1041800050400D78044404EB05140D6904F20C440E
:1041900075B13E2D14D800E030E04FEA550CED0724
:1041A00001D00CF1010C4FF6FF7505EA8C2511E0EA
:1041B000258825F4F8452580258845F4004509E043
:1041C0004FEA551CED0601D1ACF1010C4FF400454E
:1041D00045EA8C2525800D7830F82540640405D506
:1041E00030F825401C403C4320F825400B7830F83F
:1041F000231001EA090181F440517AE7B8F1000F78
:1042000007DA30F8258008EA030848EA070820F8AA
:1042100025800F7830F827506D0606D530F82750E6
:104220001D4045EA0C0520F827500D7830F8253060
:1042300003EA090383F44053134320F825308EE743
:10424000002070472DE9F04391F80C804F780A78F0
:1042500048F6BF7C4BF68F7948F2800348F2C005E0
:104260004CF2800648F68F74B8F1000F28D0002F6A
:1042700030F822704FEA474748D0002F05DA30F86F
:1042800022702740374320F822700A7830F82270D5
:104290007F0605D530F8227027402F4320F8227082
:1042A0000D7830F825202240324320F825200C7864
:1042B00030F8242002EA0C021A4320F824201AE0E5
:1042C0007FB130F82260760605D530F822602640AE
:1042D0002E4320F822600A7830F8221001EA0C01FF
:1042E0000EE030F822506D0405D530F822502540FC
:1042F000354320F822500A7830F8221001EA0901EB
:10430000194320F822100020BDE8F083002F05DAC1
:1043100030F822702740374320F822700A7830F8AE
:104320002260760605D530F8226026402E4320F81C
:1043300022600E7830F8262022402A4320F82620DA
:104340000C7830F8242002EA09021A4320F82420CD
:10435000C1E70020704700207047012120F8401F6E
:1043600000210180818001820846704730F8401F9B
:1043700021F43F41018000207047000010B5194C26
:1043800086B0206940F400002061C820FCF7C0FB23
:10439000206920F400002061A06940F00400A061C1
:1043A000A069114C00F0040004904FF4C05000903C
:1043B00001200190022002900320039069462046CC
:1043C000FCF748FC0022E1142046FCF73FFD0022E8
:1043D000A1142046FCF73AFD4FF49670FCF798FBC9
:1043E00006B010BD001002400008014000207047D8
:1043F00030B50A7BB2BB4A7848F68F7548F2800424
:10440000C2B10B7830F82320520607D530F82320AC
:104410002A4048F2C0052A4320F82320CA78012AFE
:1044200020D00A7830F8221048F6BF73194081F086
:10443000200114E00A7830F822305B0407D530F808
:1044400022302B404CF280052B4320F822300A7892
:1044500030F822104BF68F73194081F440512143FC
:1044600020F82210002030BD10B54A780978002AC3
:1044700048F2800330F8212005D048F6BF7422406E
:1044800082F0100204E04BF68F74224082F48052D6
:104490001A4320F82120002010BD00002DE9F0472C
:1044A0000E464B78097B04464FF0000948F68F72A0
:1044B00048F2800A4FF6FF774FF40048012B09D0ED
:1044C00000296ED0F07802286CD001286BD0012032
:1044D000BDE8F087B5693069854200D90546C9B1A4
:1044E000F17848F28013022923D0317834F8210082
:1044F0001040184324F82100306A401B30623078A5
:1045000034F82010490671787ED500297DD0012924
:104510007CD03FE1ABB2F2882046716900F0FCFA32
:10452000B4F850003178204400EB0110A0F8045496
:10453000EAE0316A81426AD9317834F821001040CA
:10454000184324F82100306A401B3062307834F878
:104550002010490671786CD511B1012924D02AE0C8
:10456000B4F85010214401EB001000F20C404DB1A2
:104570003E2D0FD86908EA0700D0491C07EA8121BF
:10458000018018E0018821F4F8410180018841F49C
:104590000041F5E76909EA0600D1491E48EA812190
:1045A000EEE79CE1BCE126E2B4F85020111901EBE2
:1045B0000010A0F80C547289ABB22046716900F06B
:1045C000ABFA7069284470613169306A884202D957
:1045D000401B306202E00546C6F820907078002843
:1045E0007CD1B4F850003178204400EB011000F287
:1045F00004406DB13E2D13D86908EA0700D0491C6C
:1046000007EA8121018012E001E19BE0BBE084E048
:10461000018821F4F8410180018841F40041F1E76B
:104620006909EA0600D1491E48EA8121EAE7328990
:1046300065E011B1012921D027E0B4F850102144E0
:1046400001EB001000F204404DB13E2D0FD8690877
:10465000EA0700D0491C07EA8121018015E00188A2
:1046600021F4F8410180018841F40041F5E769092E
:10467000EA0600D1491E48EA8121EEE7B4F850105D
:10468000214401EB0010A0F804543289ABB220465B
:10469000716900F041FA7069284470613169306ACB
:1046A000884202D9401B306202E00546C6F82090DD
:1046B000707800287ED1B4F850003178204400EBA7
:1046C000011000F20C4055B13E2D10D86908EA07E0
:1046D00000D0491C07EA812101800FE072E00188C7
:1046E00021F4F8410180018841F40041F4E76909AF
:1046F000EA0600D1491E48EA8121EDE77289ABB292
:104700002046716900F008FA317834F8210048F643
:10471000BF72104080F03000C0E1327834F82200DF
:1047200048F68F63184040EA0A0024F82200B4F8E3
:1047300050003278204400EB02108BB2A0F8043411
:104740003289DDE7B4F85010214401EB001000F28B
:104750000C404DB13E2D0FD86908EA0700D0491C26
:1047600007EA8121018015E0018821F4F8410180E8
:10477000018841F40041F5E76909EA0600D1491EC4
:1047800048EA8121EEE7B4F85020111901EB00103E
:10479000A0F80C547289ABB22046716900F0BCF9E4
:1047A0007069284470613169306A884203D9401BBE
:1047B000306203E06EE00546C6F82090002DA3D0DD
:1047C000707858B101287FF41EAFB4F850003178EA
:1047D000204400EB0110A0F8045428E7B4F850007E
:1047E0003178204400EB011101F204413E2D06D83E
:1047F0006808EA0700D0401C07EA802005E0680945
:10480000EA0600D1401E48EA802008800FE711B177
:10481000012921D027E0B4F85010214401EB001009
:1048200000F204404DB13E2D0FD86908EA0700D0D0
:10483000491C07EA8121018015E0018821F4F84133
:104840000180018841F40041F5E76909EA0600D1D9
:10485000491E48EA8121EEE7B4F85010214401EBEB
:104860000010A0F804543289ABB22046716900F000
:1048700053F97069284470613169306A884202D9FD
:10488000401B306202E00546C6F82090002D96D00D
:10489000707858B101287FF420AFB4F8501008198F
:1048A000317800EB0110A0F80C5427E7B4F8500061
:1048B0003178204400EB011101F20C413E2D06D865
:1048C0006808EA0700D0401C07EA802005E0680974
:1048D000EA0600D1401E48EA802008800EE7B16950
:1048E0003069814202D9091AB161B5E00846C6F8BB
:1048F0001890B1E0088820F4F8400880088840F457
:1049000000400BE03E2875D84208C00700D0521C7A
:1049100007EA822002E000BF48EA82200880B5E072
:1049200093B9B4F850003178204400EB011031699C
:1049300000F2044069B13E2913D84B08C90700D0E2
:104940005B1C07EA83210180707888B1012832D08E
:104950003AE0018821F4F8410180018841F40041E6
:10496000F1E74B09C90600D15B1E48EA8321EAE75B
:10497000B4F850003178204400EB0110316900F2A6
:104980000C4049B13E290FD84B08C90700D05B1C29
:1049900007EA8321018017E0018821F4F8410180B2
:1049A000018841F40041F5E74B09C90600D15B1EBF
:1049B00048EA8321EEE7B4F850100819317800EB8B
:1049C0000110318AA0F80C14F069A8B3317834F8DA
:1049D0002100430401D5430603D444F240031842A6
:1049E00054D134F82100104048F2C002104324F89A
:1049F00021004BE03CE0B1693069814202D9091ADB
:104A0000B16102E00846C6F818908BB9B4F85010AE
:104A10003278214401EB021101F2044168B13E28D1
:104A200013D84208C30700D0521C07EA82220A802A
:104A3000717889B1012921D028E00A8822F4F8424E
:104A40000A800A8842F40042F1E74209C30600D115
:104A5000521E48EA8222EAE7B4F850103278214424
:104A600001EB021101F20C4100287FF44BAF41E74A
:104A70004209C0067FF450AF521E4DE7B4F85020F3
:104A80001119327801EB0211A1F80C04317834F8D5
:104A900021004BF68F72104080F4405040EA0A002B
:104AA00024F82100002013E50021A0F844104FF461
:104AB0003F41A0F840100020704700000148FCF77B
:104AC000B5BD0000282300200148FCF7AFBD000061
:104AD00028230020B0F844007047000010B500EB18
:104AE00042005C0800F5806009D000BF30F8042B5C
:104AF00001F8012B120A01F8012B641EF6D1DA0726
:104B000001D00088087010BD0020704711B98021C5
:104B1000A0F84C100020704710B55B1C00EB420061
:104B20005B0800F5806009D011F8012B11F8014BEA
:104B300042EA042220F8042B5B1EF5D110BDFEE7EB
:104B4000094C4FF4FA75012211462046FCF77EF914
:104B5000284600F045F8002201212046FCF776F9AE
:104B6000012000F03DF8EEE7000C01400907090EB6
:104B7000002804DB00F1E02080F80014704700F00A
:104B80000F0000F1E02080F8141D704702E008C813
:104B9000121F08C1002AFAD170477047002001E0B7
:104BA00001C1121F002AFBD17047FCF763F9FEF721
:104BB000B1F8FDF7E9FDFDF787FDFDF795FEFDF77F
:104BC0001BFEFDF741FEFDF767FEFDF7BBFD00F0A4
:104BD0000EF8FEE701460020842900D0C81C70476B
:104BE00010B500B9012000F015FB002010BD10B574
:104BF00000F036FB002010BD7FB50D46044641692C
:104C0000B0F9080081B1A16971B1FFF7E3FFD4E900
:104C100005128DE80700D4E900102B46226900F048
:104C200030FC039004B070BDFFF7D4FF03A9CDE9B9
:104C30000001208A2B4682B2D4E9001000F0F4FB78
:104C4000012801D00020EDE70398EBE72DE9F041C2
:104C5000184C0F46054666692068001D00F016FADC
:104C600038B9206890F82C1001208840A169814350
:104C7000A161681C07D137B12168BDE8F0410E4839
:104C8000091D00F047BA20683544B54245602168E7
:104C900005D2A068BDE8F041091D00F023BA6068A4
:104CA000091D00F01FFA206B854200D22563BDE884
:104CB000F081000048030020F02600202DE9F0419B
:104CC000054600F033FA2E4C2069401C2061206814
:104CD0002C4F10B1E06940B32DE025602069012818
:104CE00029D1002606EB860007EB800000F0ECF9E6
:104CF000761C072EF6D323488C3000F0E5F92148C6
:104D0000A03000F0E1F91F48B43000F0DDF91D4893
:104D1000C83000F0D9F91B48DC3000F0D5F919484B
:104D20008C3060601430A06005E02068E96AC06AD9
:104D3000884200D82560E06A401CE062E96A0120F0
:104D4000A26988401043A06101EB810007EB80005D
:104D5000291D00F0DFF900F009FAE06900280CD005
:104D60002068E96AC06A884207D207494FF080503C
:104D70000860BFF34F8FBFF36F8FBDE8F081000075
:104D8000480300201426002004ED00E010B504467E
:104D900090F8510058B101280CD002280FD05020B3
:104DA00080F31188BFF34F8FBFF36F8FFEE7206B47
:104DB00000F0F0F92046BDE8104000F0EBB910BD5E
:104DC00010484FF44061420706D0C01D0D4920F045
:104DD0000700411AC1F540610B4A00230144C2E9B2
:104DE00000030839103A21F0070111604B600B6095
:104DF0000B1AC0E9001393604FF000405360D0607D
:104E0000704700000427002094030020144E154C26
:104E1000A6F1C8074FF08058DFF84C9012E000BFB1
:104E200000F084F9F068C568281D00F02FF92069AA
:104E3000401E2061E068401EE06000F097F92846BF
:104E4000FFF7A4FFE0680028EAD138680128F9D903
:104E5000C9F80080BFF34F8FBFF36F8FF2E70000F8
:104E6000DC2600204803002004ED00E02DE9F04797
:104E70009A46DDE9098481466FF00303206B03EB5A
:104E800082021044089D20F00706700707D05020CA
:104E900080F31188BFF34F8FBFF36F8FFEE72318A6
:104EA0000A5C83F834200A5C12B1401C1028F6D347
:104EB000002784F84370072D00D30625E562C4E976
:104EC0001157201D00F00BF904F1180000F007F94C
:104ED0002461C5F107006462A061E76484F8507042
:104EE00052464946304600F0BFF82060B8F1000F46
:104EF00001D0C8F80040BDE8F087000030B5114986
:104F000000E011460A688242FBD34B685C18844279
:104F100003D1406818444860084643681C1894420E
:104F200009D1084C103C2468A24209D052681A44A6
:104F300042600A6812680260814200D0086030BD99
:104F40000460F9E79403002006484168096829B124
:104F50004168C968C9684968016370474FF0FF310B
:104F6000FAE700004803002008484068401C4FF062
:104F7000500080F3118804D0BFF34F8FBFF36F8FC1
:104F8000FEE7BFF34F8FBFF36F8FFEE79C03002058
:104F90002DE9F0410546002700F098F9314E3068C0
:104FA00008B9FFF70DFFF06805424BD1C5B30835CE
:104FB00068070ED005F00700C0F108000544680737
:104FC00007D0502080F31188BFF34F8FBFF36F8F4E
:104FD000FEE72DB37068854234D822481030014670
:104FE0000C6801E020460C466168A94202D22168A3
:104FF0000029F7D131688C4224D00768216801600C
:1050000060680837411B10290FD96019420708D082
:10501000502080F31188BFF34F8FBFF36F8FFEE7EF
:1050200010E041606560FFF769FF61687068401AD1
:105030007060B268904200D2B060F0680143002016
:10504000C4E9000100F0BAFA780707D0502080F3D5
:105050001188BFF34F8FBFF36F8FFEE73846BDE86F
:10506000F08100008403002010B5031F4FF080740E
:105070001C601B1F21F001011960191F024B0B60FE
:10508000143940380A6010BD694F0008D0E9013278
:1050900001699A60D0E901235A604A68824201D1CD
:1050A00082684A60002202610868401E0860086841
:1050B00070470000034B036003F154000860802038
:1050C00010607047BC0F002000F108014FF0FF3264
:1050D000C0E90112C1600161002101607047002137
:1050E0000161704730B50B685A1C02D000F108020C
:1050F00002E0026904E02246546825689D42FAD91C
:1051000053684B6099608A60516008610168491C6E
:10511000016030BD42684A6093688B609368596053
:10512000916008610168491C01607047502080F35C
:105130001188BFF34F8FBFF36F8F0A494868401C37
:10514000486001280CD10848006810F0FF0F07D014
:10515000502080F31188BFF34F8FBFF36F8FFEE7AE
:10516000704700009C03002004ED00E008494868F7
:1051700028B1401E486001D180F31188704750204B
:1051800080F31188BFF34F8FBFF36F8FFEE70000EE
:105190009C03002070B5002827D0144DA0F108040E
:1051A0006168E868014207D1502080F31188BFF39D
:1051B0004F8FBFF36F8FFEE722683AB1502080F324
:1051C0001188BFF34F8FBFF36F8FFEE7814361609C
:1051D00000F07CF860686968084468602046FFF762
:1051E0008DFEBDE8704000F0E9B970BD8403002079
:1051F0004FF0E02000210161816105494FF47A728E
:105200000968B1FBF2F1491E416107210161704754
:105210008C00002010B5020014D00F48806B38B10C
:10522000502080F31188BFF34F8FBFF36F8FFEE7DD
:1052300000F04CF800211046FFF708FD00F0BEF921
:10524000002807D105494FF080500860BFF34F8F09
:10525000BFF36F8F10BD00004803002004ED00E095
:1052600010B586B00024039405AA04A903A80494E9
:10527000FFF720FFDDE903010094CDE901100023D1
:105280000EA11048059A00F0FCF80F490028486369
:1052900011D0502080F31188BFF34F8FBFF36F8F71
:1052A0004FF0FF3008630120C8614C6106B0BDE8D3
:1052B000104000F04FB806B010BD000049444C4506
:1052C000000000000D4E0008480300200248816BDA
:1052D000491C816370470000480300201448816B1B
:1052E00011B1012141627047002141628169B1FA27
:1052F00081F1C1F11F0101EB81020E4951F8223009
:105300006BB101EB820101F108034A6852684A60FF
:105310009A4201D152684A60D168016070475020BA
:1053200080F31188BFF34F8FBFF36F8FFEE700004C
:10533000480300201426002070B51C20FFF728FE2B
:10534000040005D00025201D2560FFF7BDFE257651
:10535000204670BD1CB5264908780190FF200870D2
:1053600008788DF800009DF800009DF8002000F0FE
:10537000F000904207D0502080F31188BFF34F8F88
:10538000BFF36F8FFEE79DF800001A4B00F050004E
:1053900018700720986005E09DF8002052008DF8F5
:1053A0000020401E9DF800201206F5D498600328C6
:1053B00007D0502080F31188BFF34F8FBFF36F8F5A
:1053C000FEE74FF440709860019808700A48016841
:1053D00041F470010160016841F070410160FFF724
:1053E00007FF00205860FAF7C1FE00201CBD000036
:1053F00000E400E09C03002020ED00E010B5502008
:1054000080F31188BFF34F8FBFF36F8F00F072F8F6
:1054100018B104494FF080500860002080F31188D3
:1054200010BD000004ED00E02DE9FF5F8346DDE9DB
:105430000E87994616468A469000FFF7A9FD05009B
:105440001CD05420FFF7A4FD040014D000202563D5
:1054500084F85100CDE90240CDE900874B46324641
:1054600051465846FFF702FD2046FFF727FC012072
:1054700004B0BDE8F09F2846FFF78CFE4FF0FF30E8
:10548000F6E7F0B585B0DDE90B640A9DA6B1DCB1A5
:10549000542700972663022684F85160002604AF43
:1054A000CDE90246CDE90057FFF7E0FC2046FFF7C3
:1054B00005FC049805B0F0BD502080F31188BFF3BF
:1054C0004F8FBFF36F8FFEE7502080F31188BFF33B
:1054D0004F8FBFF36F8FFEE70548C16919B1806B2D
:1054E00018B100207047012070470220704700006B
:1054F000480300202DE9F0412E4C0027A06B40B15D
:10550000206A401C2062606A00B101273846BDE86D
:10551000F0816669761C666113D16068006838B1F5
:10552000502080F31188BFF34F8FBFF36F8FFEE7DA
:105530006068A1686160A060A06A401CA062FFF77B
:1055400003FD206BDFF87080864209D36068006835
:1055500080B16068C068C568686886420DD2206303
:105560002068C06A00EB800158F821000128CAD9E0
:105570000127C8E74FF0FF30F1E7281DFFF786FD50
:10558000A86A18B105F11800FFF780FDE86A01214B
:10559000A26981401143A16100EB800108EB810009
:1055A000291DFFF7B7FDE86A2168C96A8842CDD393
:1055B0000127CBE748030020142600202DE9F047FF
:1055C0002C4D00242746A86B38B1FFF7AFFDA86B20
:1055D000401EA863A86B40B146E0502080F31188BC
:1055E000BFF34F8FBFF36F8FFEE72969224E012073
:1055F000D1B3A6F1B40980463068E8B1F068C46858
:1056000004F11800FFF742FD201DFFF73FFDE06A9F
:10561000AA6908FA00F11143A96100EB800109EBC6
:105620008100211DFFF776FDE06A2968C96A88427A
:10563000E2D3C5F82480DFE70CB1FFF785FC2C6AC4
:1056400044B14646FFF756FF00B16E62641EF9D1C1
:1056500000202862686A38B10849012738070860C5
:10566000BFF34F8FBFF36F8FFFF780FD3846BDE864
:10567000F087000048030020C826002004ED00E069
:10568000DC560008592C0008000000000000000053
:10569000800000000000000000000000D05600085C
:1056A000414B0008000000000000000080000000E6
:1056B00000000000000000000000000000000000EA
:1056C00001020304060708090000000001020304A8
:1056D000757365725461736B303100006465666187
:1056E000756C745461736B0008570008000000204B
:1056F000A8030000700200081C580008A80300203E
:10570000603F00009C4B0008811351361B08810448
:105710001A8D041AB5041AE1041A31041A5D04172B
:10572000040309041201100A02EF0201408304403D
:1057300057260201020301031B1A031AC22111FAA0
:1057400008081355031B08510413C9021B087908E4
:10575000291682105324F4130A0632022A401C1C14
:105760000902CF6F1125C03209041B01020B13057A
:105770002416100105240110090104240202052445
:1057800006170107058203081C100904A5320A1D2B
:1057900007050102432C07058107018D29D02A0640
:1057A000D013080B1A02CF0A2E02D82A40072A81EA
:1057B000071B080B413942DA02425A03424E0203E8
:1057C000070584426A03424A03424A83425A04421A
:1057D0000A1904424A86426A05424A05422A850756
:1057E00011140907CF0E38020104C032C8018D130D
:1057F0002133140841321408913442081AC70C139B
:10580000C9311B080F08C11A09281AFD141A1508F6
:0C581000DAF11C014C1AAA014100000052
:0400000508000131BD
:00000001FF
